:020000000F28C7
:10000800CE00030E83129000040891000A089200A3
:100018004F0893003D286928831681120112811127
:100028000111811001108B178B16EF3086000330F9
:100038008500833083128100051C232824282A2860
:100048008518272828281D282A282A2801300E063E
:100058000F04031D302831282A280608103A860084
:100068008E018F012A282A282A281D281D281D28A4
:100078000F280B1D4028412859280B118F3081006B
:1000880001308C0703188D0A00308D07FA300C06F2
:100098000D04031D50285128592801308E000030C6
:1000A8008F008C018D01592859280000000000009C
:1000B800000083121308CF0012088A001108840078
:1000C800100E8300CE0E4E0E09008C018D018E019C
:0600D8008F0183011028D6
:00000001FF
