:020000000F28C7
:10000800CE00030E83129000040891000A089200A3
:100018004F0893003D28662883168112011281112A
:100028000111811001108B178B16EF3086000330F9
:100038008500833083128100051C232824282A2860
:100048008518272828281D282A282A2801300E063E
:100058000F04031D302831282A280608103A860084
:100068008E018F012A282A282A281D281D281D28A4
:100078000F288B130B1D412842285A280B118D304D
:10008800810001308C0703188D0A00308D07FA3083
:100098000C060D04031D512852285A2801308E00E1
:1000A80000308F008C018D015A285A288B171308AD
:1000B800CF0012088A0011088400100E8300CE0EAB
:1000C8004E0E09008C018D018E018F0183011028CD
:00000001FF
