:060000000A128A11C22F52
:100F840083010A128A11C62F8316031386010130C6
:100F9400850088018E309F004130831203139F0027
:100FA400831603138C01831203138C01D92F1F158D
:100FB400DB2F1F19DE2FDF2FDB2FE02F8316031308
:100FC4001E08F000F101831203131E08F200F3015E
:100FD4007208F300F20170087204F40071087304DB
:100FE400F50008177408860008138817750886002A
:0C0FF4008813D92FD92F0A128A11002867
:00000001FF
